:020000040800F2
:10000000005000201595000869950008C19500086A
:10001000E5950008ED950008F59500080000000042
:10002000000000000000000000000000C1140008F3
:10003000FD9500080000000071160008B9160008C0
:1000400065950008659500086595000865950008A8
:100050006595000865950008CD83000805840008B3
:100060006595000865950008659500086595000888
:100070006595000865950008659500086595000878
:100080006595000865950008659500086595000868
:100090006595000865950008659500083D7A00089B
:1000A0006595000865950008659500086595000848
:1000B0006595000865950008659500086595000838
:1000C0006595000865950008659500086595000828
:1000D00065950008999400086595000865950008E5
:1000E000659500086595000865950008000000000A
:1000F0000000000000000000000000000000000000
:0C01000000000000000000005FF808F1A3
:1001100010B5054C237833B9044B13B10448AFF341
:1001200000800123237010BD980000200000000013
:10013000DCA1000808B5034B1BB103490348AFF32A
:10014000008008BD000000009C000020DCA1000829
:1001500081F0004102E000BF83F0004330B54FEA78
:1001600041044FEA430594EA050F08BF90EA020FE5
:100170001FBF54EA000C55EA020C7FEA645C7FEA78
:10018000655C00F0E2804FEA5454D4EB5555B8BF9B
:100190006D420CDD2C4480EA020281EA030382EA0C
:1001A000000083EA010180EA020281EA0303362D9E
:1001B00088BF30BD11F0004F4FEA01314FF4801C71
:1001C0004CEA113102D0404261EB410113F0004F83
:1001D0004FEA03334CEA133302D0524263EB43033A
:1001E00094EA050F00F0A780A4F10104D5F1200ED8
:1001F0000DDB02FA0EFC22FA05F2801841F1000133
:1002000003FA0EF2801843FA05F359410EE0A5F106
:1002100020050EF1200E012A03FA0EFC28BF4CF037
:10022000020C43FA05F3C01851EBE37101F00045ED
:1002300007D54FF0000EDCF1000C7EEB00006EEBFA
:100240000101B1F5801F1BD3B1F5001F0CD3490884
:100250005FEA30004FEA3C0C04F101044FEA4452DB
:1002600012F5800F80F09A80BCF1004F08BF5FEA62
:10027000500C50F1000041EB045141EA050130BD42
:100280005FEA4C0C404141EB010111F4801FA4F1E5
:100290000104E9D191F0000F04BF01460020B1FA3A
:1002A00081F308BF2033A3F10B03B3F120020CDA72
:1002B0000C3208DD02F1140CC2F10C0201FA0CF050
:1002C00021FA02F10CE002F11402D8BFC2F1200CB5
:1002D00001FA02F120FA0CFCDCBF41EA0C0190406B
:1002E000E41AA2BF01EB0451294330BD6FEA0404B4
:1002F0001F3C1CDA0C340EDC04F11404C4F120029F
:1003000020FA04F001FA02F340EA030021FA04F3B0
:1003100045EA030130BDC4F10C04C4F1200220FA07
:1003200002F001FA04F340EA0300294630BD21FA45
:1003300004F0294630BD94F0000F83F4801306BF0B
:1003400081F480110134013D4EE77FEA645C18BFFF
:100350007FEA655C29D094EA050F08BF90EA020F96
:1003600005D054EA000C04BF1946104630BD91EA8E
:10037000030F1EBF0021002030BD5FEA545C05D191
:100380004000494128BF41F0004130BD14F58004D0
:100390003CBF01F5801130BD01F0004545F0FE4144
:1003A00041F470014FF0000030BD7FEA645C1ABF79
:1003B000194610467FEA655C1CBF0B46024650EAB0
:1003C000013406BF52EA033591EA030F41F40021DC
:1003D00030BD00BF90F0000F04BF0021704730B562
:1003E0004FF4806404F132044FF000054FF0000137
:1003F00050E700BF90F0000F04BF0021704730B5F8
:100400004FF4806404F1320410F0004548BF4042CC
:100410004FF000013EE700BF42004FEAE2014FEA21
:1004200031014FEA02701FBF12F07F4393F07F4FFC
:1004300081F06051704792F0000F14BF93F07F4F2E
:10044000704730B54FF4607401F0004521F0004171
:1004500020E700BF50EA010208BF704730B54FF0F7
:1004600000050AE050EA010208BF704730B511F0FC
:10047000004502D5404261EB41014FF4806404F134
:1004800032045FEA915C3FF4DCAE4FF003025FEAB6
:10049000DC0C18BF03325FEADC0C18BF033202EB3E
:1004A000DC02C2F1200300FA03FC20FA02F001FA98
:1004B00003FE40EA0E0021FA02F11444C1E600BF37
:1004C00070B54FF0FF0C4CF4E06C1CEA11541DBFEA
:1004D0001CEA135594EA0C0F95EA0C0F00F0DEF8B5
:1004E0002C4481EA030621EA4C5123EA4C5350EA9A
:1004F000013518BF52EA033541F4801143F48013EB
:1005000038D0A0FB02CE4FF00005E1FB02E506F07B
:100510000042E0FB03E54FF00006E1FB03569CF0D0
:10052000000F18BF4EF0010EA4F1FF04B6F5007FD6
:1005300064F5407404D25FEA4E0E6D4146EB060648
:1005400042EAC62141EA55514FEAC52040EA5E50D1
:100550004FEACE2EB4F1FD0C88BFBCF5E06F1ED87B
:10056000BEF1004F08BF5FEA500E50F1000041EBB2
:10057000045170BD06F0004646EA010140EA02005F
:1005800081EA0301B4EB5C04C2BFD4EB0C0541EA81
:10059000045170BD41F480114FF0000E013C00F396
:1005A000AB8014F1360FDEBF002001F0004170BDBA
:1005B000C4F10004203C35DA0C341BDC04F11404D3
:1005C000C4F1200500FA05F320FA04F001FA05F25F
:1005D00040EA020001F0004221F0004110EBD3702C
:1005E00021FA04F642EB06015EEA430E08BF20EA58
:1005F000D37070BDC4F10C04C4F1200500FA04F3FB
:1006000020FA05F001FA04F240EA020001F000418C
:1006100010EBD37041F100015EEA430E08BF20EAFF
:10062000D37070BDC4F1200500FA05F24EEA020E47
:1006300020FA04F301FA05F243EA020321FA04F076
:1006400001F0004121FA04F220EA020000EBD3702D
:100650005EEA430E08BF20EAD37070BD94F0000F2D
:100660000FD101F00046400041EB010111F4801F61
:1006700008BF013CF7D041EA060195F0000F18BF12
:10068000704703F00046520043EB030313F4801F4E
:1006900008BF013DF7D043EA0603704794EA0C0F08
:1006A0000CEA135518BF95EA0C0F0CD050EA41061E
:1006B00018BF52EA4306D1D181EA030101F000419B
:1006C0004FF0000070BD50EA410606BF10461946C3
:1006D00052EA430619D094EA0C0F02D150EA0136CF
:1006E00013D195EA0C0F05D152EA03361CBF104610
:1006F00019460AD181EA030101F0004141F0FE41AF
:1007000041F470014FF0000070BD41F0FE4141F432
:10071000780170BD70B54FF0FF0C4CF4E06C1CEA32
:1007200011541DBF1CEA135594EA0C0F95EA0C0FE7
:1007300000F0A7F8A4EB050481EA030E52EA0335A2
:100740004FEA013100F088804FEA03334FF08055C3
:1007500045EA131343EA12634FEA022245EA1115F0
:1007600045EA10654FEA00260EF000419D4208BFA1
:10077000964244F1FD0404F5407402D25B084FEA4E
:100780003202B61A65EB03055B084FEA32024FF4FA
:1007900080104FF4002CB6EB020E75EB030E22BF57
:1007A000B61A754640EA0C005B084FEA3202B6EB17
:1007B000020E75EB030E22BFB61A754640EA5C00C6
:1007C0005B084FEA3202B6EB020E75EB030E22BF56
:1007D000B61A754640EA9C005B084FEA3202B6EB57
:1007E000020E75EB030E22BFB61A754640EADC0016
:1007F00055EA060E18D04FEA051545EA16754FEA78
:1008000006164FEAC30343EA52734FEAC2025FEA95
:100810001C1CC0D111F4801F0BD141EA00014FF024
:1008200000004FF0004CB6E711F4801F04BF0143F5
:100830000020B4F1FD0C88BFBCF5E06F3FF6AFAE11
:10084000B5EB030C04BFB6EB020C5FEA500C50F1A1
:10085000000041EB045170BD0EF0004E4EEA113124
:1008600014EB5C04C2BFD4EB0C0541EA045170BD2B
:1008700041F480114FF0000E013C90E645EA060E6F
:100880008DE60CEA135594EA0C0F08BF95EA0C0F9D
:100890003FF43BAF94EA0C0F0AD150EA01347FF4E5
:1008A00034AF95EA0C0F7FF425AF104619462CE7BC
:1008B00095EA0C0F06D152EA03353FF4FDAE10461F
:1008C000194622E750EA410618BF52EA43067FF470
:1008D000C5AE50EA41047FF40DAF52EA43057FF400
:1008E000EBAE12E74FF0FF3C06E000BF4FF0010C0B
:1008F00002E000BF4FF0010C4DF804CD4FEA410C6F
:100900007FEA6C5C4FEA430C18BF7FEA6C5C1BD03B
:1009100001B050EA410C0CBF52EA430C91EA030FBC
:1009200002BF90EA020F0020704710F1000F91EA19
:10093000030F58BF994208BF90422CBFD8176FEAE7
:10094000E37040F0010070474FEA410C7FEA6C5CB5
:1009500002D150EA013C07D14FEA430C7FEA6C5CBC
:10096000D6D152EA033CD3D05DF8040B704700BFE8
:100970008446104662468C461946634600E000BF36
:1009800001B5FFF7B7FF002848BF10F1000F01BD08
:100990004DF808EDFFF7F4FF0CBF012000205DF8D3
:1009A00008FB00BF4DF808EDFFF7EAFF34BF012058
:1009B00000205DF808FB00BF4DF808EDFFF7E0FFF1
:1009C00094BF012000205DF808FB00BF4DF808ED42
:1009D000FFF7CEFF94BF012000205DF808FB00BFA9
:1009E0004DF808EDFFF7C4FF34BF012000205DF88B
:1009F00008FB00BF4FEA410212F5001215D211D5D3
:100A00006FF47873B3EB625212D94FEAC12343F00B
:100A1000004343EA505311F0004F23FA02F018BF8D
:100A2000404270474FF00000704750EA013005D156
:100A300011F0004008BF6FF0004070474FF0000019
:100A4000704700BF80F0004002E000BF81F000412D
:100A500042001FBF5FEA410392EA030F7FEA226C64
:100A60007FEA236C6AD04FEA1262D2EB1363C1BFF4
:100A7000D218414048404140B8BF5B42192B88BF63
:100A8000704710F0004F40F4000020F07F4018BF86
:100A9000404211F0004F41F4000121F07F4118BFA6
:100AA000494292EA030F3FD0A2F1010241FA03FC4E
:100AB00010EB0C00C3F1200301FA03F100F0004336
:100AC00002D5494260EB4000B0F5000F13D3B0F1FE
:100AD000807F06D340084FEA310102F10102FE2A6D
:100AE00051D2B1F1004F40EBC25008BF20F00100DD
:100AF00040EA03007047490040EB000010F4000F8B
:100B0000A2F10102EDD1B0FA80FCACF1080CB2EB1D
:100B10000C0200FA0CF0AABF00EBC250524218437C
:100B2000BCBFD0401843704792F0000F81F4000121
:100B300006BF80F400000132013BB5E74FEA4103F4
:100B40007FEA226C18BF7FEA236C21D092EA030F60
:100B500004D092F0000F08BF0846704790EA010FDA
:100B60001CBF0020704712F07F4F04D1400028BF07
:100B700040F00040704712F100723CBF00F50000E9
:100B8000704700F0004343F0FE4040F4000070471F
:100B90007FEA226216BF08467FEA236301464202CB
:100BA00006BF5FEA412390EA010F40F480007047DE
:100BB0004FF0000304E000BF10F0004348BF404284
:100BC0005FEA000C08BF704743F0964301464FF0C0
:100BD00000001CE050EA010208BF70474FF000031C
:100BE0000AE000BF50EA010208BF704711F000435D
:100BF00002D5404261EB41015FEA010C02BF84462D
:100C00000146002043F0B64308BFA3F18053A3F58B
:100C10000003BCFA8CF2083AA3EBC25310DB01FAD2
:100C200002FC634400FA02FCC2F12002BCF1004F56
:100C300020FA02F243EB020008BF20F001007047E7
:100C400002F1200201FA02FCC2F1200250EA4C003B
:100C500021FA02F243EB020008BF20EADC70704781
:100C60004FF0FF0C1CEAD0521EBF1CEAD15392EA8F
:100C70000C0F93EA0C0F6FD01A4480EA010C40026B
:100C800018BF5FEA41211ED04FF0006343EA5010C5
:100C900043EA5111A0FB01310CF00040B1F5000F07
:100CA0003EBF490041EAD3715B0040EA010062F1B6
:100CB0007F02FD2A1DD8B3F1004F40EBC25008BFA0
:100CC00020F00100704790F0000F0CF0004C08BFBE
:100CD00049024CEA502040EA51207F3AC2BFD2F18B
:100CE000FF0340EAC250704740F400004FF0000399
:100CF000013A5DDC12F1190FDCBF00F000407047D3
:100D0000C2F10002410021FA02F1C2F1200200FA10
:100D100002FC5FEA310040F1000053EA4C0308BFD7
:100D200020EADC70704792F0000F00F0004C02BF28
:100D3000400010F4000F013AF9D040EA0C0093F0A3
:100D4000000F01F0004C02BF490011F4000F013BFD
:100D5000F9D041EA0C018FE70CEAD15392EA0C0F6B
:100D600018BF93EA0C0F0AD030F0004C18BF31F0D6
:100D7000004CD8D180EA010000F00040704790F0AC
:100D8000000F17BF90F0004F084691F0000F91F050
:100D9000004F14D092EA0C0F01D142020FD193EA16
:100DA0000C0F03D14B0218BF084608D180EA01009E
:100DB00000F0004040F0FE4040F40000704740F07A
:100DC000FE4040F4400070474FF0FF0C1CEAD05248
:100DD0001EBF1CEAD15392EA0C0F93EA0C0F69D0A4
:100DE000A2EB030280EA010C49024FEA402037D00F
:100DF0004FF0805343EA111143EA10130CF0004006
:100E00008B4238BF5B0042F17D024FF4000C8B42F5
:100E100024BF5B1A40EA0C00B3EB510F24BFA3EBD5
:100E2000510340EA5C00B3EB910F24BFA3EB9103A5
:100E300040EA9C00B3EBD10F24BFA3EBD10340EAFF
:100E4000DC001B0118BF5FEA1C1CE0D1FD2A3FF645
:100E500050AF8B4240EBC25008BF20F001007047FA
:100E60000CF0004C4CEA50207F32C2BFD2F1FF039D
:100E700040EAC250704740F400004FF00003013ACE
:100E800037E792F0000F00F0004C02BF400010F472
:100E9000000F013AF9D040EA0C0093F0000F01F086
:100EA000004C02BF490011F4000F013BF9D041EAA8
:100EB0000C0195E70CEAD15392EA0C0F08D14202DB
:100EC0007FF47DAF93EA0C0F7FF470AF084676E7AE
:100ED00093EA0C0F04D14B023FF44CAF08466EE787
:100EE00030F0004C18BF31F0004CCAD130F0004255
:100EF0007FF45CAF31F000437FF43CAF5FE700BFAD
:100F000080B58AB000AF78600023FB6101F0A0FCDF
:100F1000574B1B68002B01D100F016F9554B1A688E
:100F20007B681340002B40F08C807B68002B1CD02A
:100F300008227B6813447B607B6803F00703002B67
:100F400013D07B6823F0070308337B607B6803F0D2
:100F50000703002B09D04FF0500383F31188BFF330
:100F60006F8FBFF34F8FFB60FEE77B68002B68D06D
:100F7000414B1B687A689A4263D8404B3B623F4BB7
:100F80001B687B6204E07B6A3B627B6A1B687B6256
:100F90007B6A5A687B689A4203D27B6A1B68002B83
:100FA000F1D1334B1B687A6A9A424AD03B6A1B687C
:100FB00008221344FB617B6A1A683B6A1A607B6AE9
:100FC0005A687B68D21A08235B009A421ED97A6A53
:100FD0007B6813447B617B6903F00703002B09D016
:100FE0004FF0500383F31188BFF36F8FBFF34F8F20
:100FF000BB61FEE77B6A5A687B68D21A7B695A60DC
:101000007B6A7A685A60786900F000F91A4B1A68AE
:101010007B6A5B68D31A184A1360174B1A68184B1F
:101020001B689A4203D2144B1B68154A13607B6AF3
:101030005A68104B1B681A437B6A5A607B6A00220D
:101040001A6001F013FCFB6903F00703002B09D0C1
:101050004FF0500383F31188BFF36F8FBFF34F8FAF
:101060003B61FEE7FB6918462837BD4680BD00BFDF
:10107000BC240020C8240020C0240020B424002068
:10108000C424002080B586B000AF78607B687B61A7
:101090007B68002B46D008235B427A6913447B614E
:1010A0007B693B613B695A68204B1B681340002BEE
:1010B00009D14FF0500383F31188BFF36F8FBFF353
:1010C0004F8FBB60FEE73B691B68002B09D04FF0D8
:1010D000500383F31188BFF36F8FBFF34F8FFB6013
:1010E000FEE73B695A68114B1B681340002B19D06F
:1010F0003B691B68002B15D13B695A680B4B1B6879
:10110000DB431A403B695A6001F0A2FB3B695A6815
:10111000074B1B681344064A1360386900F076F8E1
:1011200001F0A4FB00BF1837BD4680BDC8240020D5
:10113000C024002080B400AF024B1B681846BD4697
:1011400080BC7047C024002080B485B000AF4FF44D
:101150001053BB60274BFB60FB6803F00703002BB9
:101160000CD0FB680733FB60FB6823F00703FB60D0
:10117000BA68FB68D31A1F4A1344BB60FB687B60E4
:101180001D4A7B6813601C4B00225A607A68BB685A
:101190001344FB600822FB689B1AFB60FB6823F08A
:1011A0000703FB60FB68154A1360144B1B680022A1
:1011B0005A60124B1B6800221A607B683B603B68D8
:1011C000FA68D21A3B685A600C4B1A683B681A607E
:1011D0003B685B680A4A13603B685B68094A1360B6
:1011E000094B4FF000421A6000BF1437BD4680BC67
:1011F000704700BFB4000020B4240020BC240020AD
:10120000C4240020C0240020C824002080B485B05D
:1012100000AF7860274BFB6002E0FB681B68FB6057
:10122000FB681A687B689A42F7D3FB68BB60FB686F
:101230005B68BA681A447B689A4208D1FB685A68AE
:101240007B685B681A44FB685A60FB687B607B685C
:10125000BB607B685B68BA681A44FB681B689A428B
:1012600018D1FB681A68144B1B689A420DD07B6832
:101270005A68FB681B685B681A447B685A60FB68A5
:101280001B681A687B681A6008E00B4B1A687B6859
:101290001A6003E0FB681A687B681A60FA687B686A
:1012A0009A4202D0FB687A681A6000BF1437BD46C4
:1012B00080BC7047B4240020BC24002080B483B0DC
:1012C00000AF78607B6803F108027B685A607B6836
:1012D0004FF0FF329A607B6803F108027B68DA60A6
:1012E0007B6803F108027B681A617B6800221A6040
:1012F00000BF0C37BD4680BC704700BF80B483B0D0
:1013000000AF78607B6800221A6100BF0C37BD46D1
:1013100080BC704780B485B000AF786039607B686E
:101320005B68FB603B68FA685A60FB689A683B68D8
:101330009A60FB689B683A685A60FB683A689A60F2
:101340003B687A681A617B681B685A1C7B681A6064
:1013500000BF1437BD4680BC704700BF80B485B065
:1013600000AF786039603B681B68BB60BB68B3F155
:10137000FF3F03D17B681B69FB600CE07B6808338F
:10138000FB6002E0FB685B68FB60FB685B681A68F7
:10139000BB689A42F6D9FB685A683B685A603B685A
:1013A0005B683A689A603B68FA689A60FB683A68DA
:1013B0005A603B687A681A617B681B685A1C7B68B4
:1013C0001A6000BF1437BD4680BC704780B485B03A
:1013D00000AF78607B681B69FB607B685B687A683C
:1013E00092689A607B689B687A6852685A60FB686A
:1013F0005A687B689A4203D17B689A68FB685A6096
:101400007B6800221A61FB681B685A1EFB681A6021
:10141000FB681B6818461437BD4680BC704700BF88
:1014200080B485B000AFF860B9607A60FB68043BB7
:10143000FB60FB684FF080721A60FB68043BFB6046
:10144000BB6823F00102FB681A60FB68043BFB6089
:10145000084AFB681A60FB68143BFB607A68FB680B
:101460001A60FB68203BFB60FB6818461437BD46DA
:1014700080BC70477914000880B483B000AF0C4B77
:101480001B68B3F1FF3F09D04FF0500383F311887D
:10149000BFF36F8FBFF34F8F3B60FEE74FF05003FA
:1014A00083F31188BFF36F8FBFF34F8F7B60FEE72D
:1014B0000400002000000000000000000000000008
:1014C000074B19680868B0E8F00F80F30988BFF38C
:1014D0006F8F4FF0000080F311884EF00D0E7047B3
:1014E000D424002000BF00BF06480068006880F3D5
:1014F000088862B661B6BFF34F8FBFF36F8F00DF0E
:1015000000BF00BF08ED00E080B584B000AF284BFD
:10151000FB60FB681B78DBB2BB60FB68FF221A70C4
:10152000FB681B78DBB2FB71FB79DBB203F0500385
:10153000DAB2204B1A70204B07221A6009E01E4BCA
:101540001B68013B1C4A1360FB79DBB25B00DBB21A
:10155000FB71FB79DBB25BB2002BF0DB164B1B6837
:101560001B02154A1360144B1B6803F4E063124A14
:101570001360BB68DAB2FB681A70104A0F4B1B6825
:1015800043F4700313600D4A0C4B1B6843F0704327
:10159000136000F0B1F80A4B00221A60FFF7A4FFB5
:1015A000FFF76AFF002318461037BD4680BD00BF15
:1015B00000E400E0CC240020D024002020ED00E056
:1015C0000400002080B483B000AF4FF0500383F3D9
:1015D0001188BFF36F8FBFF34F8F3B600E4B1B68BB
:1015E00001330D4A13600C4B1B68012B0ED10B4BC2
:1015F0001B68DBB2002B09D04FF0500383F3118836
:10160000BFF36F8FBFF34F8F7B60FEE700BF0C37D8
:10161000BD4680BC704700BF0400002004ED00E020
:1016200080B483B000AF104B1B68002B09D14FF082
:10163000500383F31188BFF36F8FBFF34F8F3B606D
:10164000FEE7094B1B68013B074A1360064B1B680A
:10165000002B04D100237B607B6883F3118800BFDB
:101660000C37BD4680BC704704000020000000001D
:10167000EFF30980BFF36F8F0D4B1A6820E9F00F6D
:1016800010602DE908404FF0500080F3118801F000
:1016900075FA4FF0000080F31188BDE80840196822
:1016A0000868B0E8F00F80F30988BFF36F8F7047C8
:1016B000D424002000BF00BF80B582B000AF4FF03F
:1016C000500383F31188BFF36F8FBFF34F8F3B60DD
:1016D00001F098F90346002B03D0064B4FF08052DF
:1016E0001A6000237B607B6883F3118800BF083792
:1016F000BD4680BD04ED00E080B400AF074A084B52
:101700001B680849A1FB03139B09013B1360064BAF
:1017100007221A6000BFBD4680BC704714E000E09D
:101720001C000020D34D621010E000E080B485B0B2
:1017300000AFEFF30583FB60FB680F2B13D9154A4D
:10174000FB6813441B78FB72134B1B78FA7A9A429E
:1017500009D24FF0500383F31188BFF36F8FBFF3AB
:101760004F8F3B60FEE70D4B1B6803F4E0620C4BB0
:101770001B689A4209D94FF0500383F31188BFF3D5
:101780006F8FBFF34F8F7B60FEE700BF1437BD46FE
:1017900080BC7047F0E300E0CC2400200CED00E0BA
:1017A000D024002080B584B000AF786039607B68B9
:1017B000FB60FB68002B09D14FF0500383F31188C5
:1017C000BFF36F8FBFF34F8FBB60FEE7FFF7FAFEEB
:1017D000FB681A68FB68DB6BF968096C01FB03F3B3
:1017E0001A44FB685A60FB6800229A63FB681A6817
:1017F000FB689A60FB681A68FB68DB6B013BF96861
:10180000096C01FB03F31A44FB68DA60FB68FF22F2
:1018100083F84420FB68FF2283F845203B68002BB7
:1018200014D1FB681B69002B1AD0FB6810331846D3
:1018300001F072FA0346002B12D00D4B4FF080528C
:101840001A60BFF34F8FBFF36F8F09E0FB6810334F
:101850001846FFF733FDFB6824331846FFF72EFDCB
:10186000FFF7DEFE012318461037BD4680BD00BFDE
:1018700004ED00E080B58AB002AFF860B9601346AD
:10188000FB71FB68002B09D14FF0500383F31188E3
:10189000BFF36F8FBFF34F8F3B61FEE7BB68002B39
:1018A00002D10023FB6104E0FB68BA6802FB03F38A
:1018B000FB61FB694C331846FFF722FBB861BB693B
:1018C000002B0BD0BB694C337B61FA79BB69009369
:1018D00013467A69B968F86800F006F8BB691846DB
:1018E0002037BD4680BD00BF80B584B000AFF86032
:1018F000B9607A60FB70BB68002B03D1BB69BA6921
:101900001A6002E0BB697A681A60BB69FA68DA6338
:10191000BB69BA681A640121B869FFF743FFBB6964
:1019200000229A6400BF1037BD4680BD80B58EB0DE
:1019300000AFF860B9607A603B6000237B63FB68AE
:101940003B633B6B002B09D14FF0500383F31188AD
:10195000BFF36F8FBFF34F8FFB61FEE7BB68002BB8
:1019600003D13B6B1B6C002B01D1012300E0002352
:10197000002B09D14FF0500383F31188BFF36F8F11
:10198000BFF34F8F3B62FEE73B68022B03D13B6BFB
:10199000DB6B012B01D1012300E00023002B09D1D7
:1019A0004FF0500383F31188BFF36F8FBFF34F8F56
:1019B0007B62FEE701F058FB0346002B02D17B68F7
:1019C000002B01D1012300E00023002B09D14FF0AF
:1019D000500383F31188BFF36F8FBFF34F8FBB6248
:1019E000FEE7FFF7EFFD3B6B9A6B3B6BDB6B9A42BD
:1019F00002D33B68022B3DD13A68B968386B00F0DE
:101A0000F7FAF8623B6B9B6C002B0FD03968386B90
:101A100000F086FC0346002B28D04A4B4FF0805242
:101A20001A60BFF34F8FBFF36F8F1FE03B6B5B6A92
:101A3000002B10D03B6B2433184601F06DF90346A0
:101A4000002B13D03F4B4FF080521A60BFF34F8FE3
:101A5000BFF36F8F0AE0FB6A002B07D0394B4FF0C2
:101A600080521A60BFF34F8FBFF36F8FFFF7D8FD1F
:101A7000012363E07B68002B03D1FFF7D1FD002336
:101A80005CE07B6B002B06D107F11403184601F0D4
:101A9000A5F901237B63FFF7C3FD00F0D9FEFFF733
:101AA00091FD3B6B93F844305BB2B3F1FF3F03D140
:101AB0003B6B002283F844203B6B93F845305BB2CC
:101AC000B3F1FF3F03D13B6B002283F84520FFF7C2
:101AD000A7FD3A1D07F114031146184601F0A0F9BD
:101AE0000346002B24D1386B00F088FB0346002B03
:101AF00018D03B6B10337A681146184601F0BEF8D7
:101B0000386B00F005FB00F0B1FE0346002B7FF4BC
:101B100068AF0C4B4FF080521A60BFF34F8FBFF38A
:101B20006F8F5EE7386B00F0F3FA00F09FFE58E726
:101B3000386B00F0EDFA00F099FE002318463837B4
:101B4000BD4680BD04ED00E080B58EB000AFF8600A
:101B5000B9607A603B60FB683B633B6B002B09D14B
:101B60004FF0500383F31188BFF36F8FBFF34F8F94
:101B70007B61FEE7BB68002B03D13B6B1B6C002B2A
:101B800001D1012300E00023002B09D14FF05003C5
:101B900083F31188BFF36F8FBFF34F8FBB61FEE7F5
:101BA0003B68022B03D13B6BDB6B012B01D1012383
:101BB00000E00023002B09D14FF0500383F311887C
:101BC000BFF36F8FBFF34F8FFB61FEE7FFF7AEFDF3
:101BD000EFF311824FF0500383F31188BFF36F8F3F
:101BE000BFF34F8F3A623B613B6ABB623B6B9A6BC0
:101BF0003B6BDB6B9A4202D33B68022B3ED13B6BC3
:101C000093F8453087F827303A68B968386B00F0A8
:101C1000EFF997F92730B3F1FF3F24D13B6B9B6C71
:101C2000002B0DD03968386B00F07AFB0346002B8F
:101C300021D07B68002B1ED07B6801221A601AE03D
:101C40003B6B5B6A002B16D03B6B2433184601F0CC
:101C500063F80346002B0ED07B68002B0BD07B680B
:101C600001221A6007E097F827300133DBB25AB23D
:101C70003B6B83F8452001237B6301E000237B63FA
:101C8000BB6AFB62FB6A83F311887B6B18463837AB
:101C9000BD4680BD80B58EB000AF786039607B688E
:101CA0003B633B6B002B09D14FF0500383F311884A
:101CB000BFF36F8FBFF34F8F3B61FEE73B6B1B6C36
:101CC000002B09D04FF0500383F31188BFF36F8FBF
:101CD000BFF34F8F7B61FEE73B6B1B68002B03D18B
:101CE0003B6B5B68002B01D1012300E00023002B3C
:101CF00009D14FF0500383F31188BFF36F8FBFF307
:101D00004F8FBB61FEE7FFF711FDEFF311824FF03C
:101D1000500383F31188BFF36F8FBFF34F8FFA61C6
:101D2000FB60FB69BB623B6B9B6B7B623B6BDA6B63
:101D30007B6A9A423DD93B6B93F8453087F8233054
:101D40007B6A5A1C3B6B9A6397F92330B3F1FF3FD0
:101D500024D13B6B9B6C002B0DD00021386B00F025
:101D6000DFFA0346002B21D03B68002B1ED03B68D6
:101D700001221A601AE03B6B5B6A002B16D03B6BAA
:101D80002433184600F0C8FF0346002B0ED03B68F2
:101D9000002B0BD03B6801221A6007E097F8233034
:101DA0000133DBB25AB23B6B83F8452001237B63DE
:101DB00001E000237B63BB6AFB62FB6A83F311884B
:101DC0007B6B18463837BD4680BD00BF80B58EB0EE
:101DD00000AFF860B9607A603B6000237B63FB680A
:101DE0003B633B6B002B09D14FF0500383F3118809
:101DF000BFF36F8FBFF34F8FFB61FEE7BB68002B14
:101E000003D13B6B1B6C002B01D1012300E00023AD
:101E1000002B09D14FF0500383F31188BFF36F8F6C
:101E2000BFF34F8F3B62FEE701F01EF90346002B24
:101E300002D17B68002B01D1012300E00023002B9D
:101E400009D14FF0500383F31188BFF36F8FBFF3B5
:101E50004F8F7B62FEE7FFF7B5FB3B6B9B6BFB6233
:101E6000FB6A002B46D03B6BDB68BB62B968386B02
:101E700000F028F93B68002B21D1FB6A5A1E3B6B0E
:101E80009A633B6B1B68002B04D101F005FA0246F4
:101E90003B6B5A603B6B1B69002B27D03B6B1033AD
:101EA000184600F039FF0346002B1FD04F4B4FF070
:101EB00080521A60BFF34F8FBFF36F8F16E03B6BFA
:101EC000BA6ADA603B6B5B6A002B0FD03B6B243342
:101ED000184600F021FF0346002B07D0434B4FF07C
:101EE00080521A60BFF34F8FBFF36F8FFFF798FBDD
:101EF000012377E07B68002B03D1FFF791FB0023E0
:101F000070E07B6B002B06D107F11403184600F03C
:101F100065FF01237B63FFF783FB00F099FCFFF76C
:101F200051FB3B6B93F844305BB2B3F1FF3F03D1FD
:101F30003B6B002283F844203B6B93F845305BB247
:101F4000B3F1FF3F03D13B6B002283F84520FFF73D
:101F500067FB3A1D07F114031146184600F060FFB5
:101F60000346002B31D1386B00F032F90346002BC9
:101F700025D03B6B1B68002B08D1FFF723FB3B6B85
:101F80005B68184601F08EF8FFF74AFB3B6B243381
:101F90007A681146184600F071FE386B00F0B8F808
:101FA00000F064FC0346002B7FF455AF0F4B4FF05D
:101FB00080521A60BFF34F8FBFF36F8F4BE7386BC0
:101FC00000F0A6F800F052FC45E7386B00F0A0F8EE
:101FD00000F04CFC386B00F0FBF80346002B3FF49C
:101FE0003AAF002318463837BD4680BD04ED00E007
:101FF00080B586B000AFF860B9607A6000237B617D
:10200000FB689B6B3B61FB681B6C002B0DD1FB6875
:102010001B68002B4DD1FB685B68184601F0B8F8CF
:102020007861FB6800225A6043E07B68002B19D17D
:10203000FB689868FB681B6C1A46B96807F044FC9B
:10204000FB689A68FB681B6C1A44FB689A60FB6823
:102050009A68FB685B689A422BD3FB681A68FB6836
:102060009A6026E0FB68D868FB681B6C1A46B96862
:1020700007F02AFCFB68DA68FB681B6C5B421A44B9
:10208000FB68DA60FB68DA68FB681B689A4207D273
:10209000FB685A68FB681B6C5B421A44FB68DA6099
:1020A0007B68022B05D13B69002B02D03B69013BC9
:1020B0003B613B695A1CFB689A637B691846183779
:1020C000BD4680BD80B582B000AF786039607B6866
:1020D0001B6C002B18D07B68DA687B681B6C1A4479
:1020E0007B68DA607B68DA687B685B689A4203D356
:1020F0007B681A687B68DA607B68D9687B681B6CD0
:102100001A46386807F0E0FB00BF0837BD4680BDBF
:1021100080B584B000AF7860FFF754FA7B6893F81D
:102120004530FB731FE07B689B6C002B09D00021BE
:10213000786800F0F5F80346002B10D000F0C6FEDA
:102140000DE07B685B6A002B12D07B682433184655
:1021500000F0E2FD0346002B01D000F0B7FEFB7B50
:10216000013BDBB2FB7397F90F30002BDBDC00E0A7
:1021700000BF7B68FF2283F84520FFF751FAFFF785
:1021800021FA7B6893F84430BB7311E07B681B69CC
:10219000002B12D07B681033184600F0BDFD0346BB
:1021A000002B01D000F092FEBB7B013BDBB2BB7386
:1021B00097F90E30002BE9DC00E000BF7B68FF22BE
:1021C00083F84420FFF72CFA00BF1037BD4680BDCE
:1021D00080B584B000AF7860FFF7F4F97B689B6B43
:1021E000002B02D10123FB6001E00023FB60FFF71D
:1021F00017FAFB6818461037BD4680BD80B584B01D
:1022000000AF7860FFF7DEF97B689A6B7B68DB6B69
:102210009A4202D10123FB6001E00023FB60FFF73B
:10222000FFF9FB6818461037BD4680BD80B586B003
:1022300000AFF860B9607A60FB687B61FFF7C2F9B4
:102240007B6993F844305BB2B3F1FF3F03D17B6904
:10225000002283F844207B6993F845305BB2B3F1E8
:10226000FF3F03D17B69002283F84520FFF7D8F9AF
:102270007B699B6B002B06D17B6924337A68B96834
:10228000184600F01FFD7869FFF742FF00BF1837BE
:10229000BD4680BD80B584B000AF786000220421C7
:1022A0007868FFF7E7FAF860FB6818461037BD4614
:1022B00080BD00BF80B584B000AF78603960FFF7A3
:1022C00081F97B689B6C002B02D00023FB600BE044
:1022D0007B689B6B002B02D00023FB6004E07B68D3
:1022E0003A689A640123FB60FFF79AF9FB68184685
:1022F0001037BD4680BD00BF80B584B000AF7860A8
:1023000039600023FB6007F10C0100233A6878680C
:10231000FFF75CFDFB6818461037BD4680BD00BF67
:1023200080B588B000AF786039607B689B6CBB611A
:102330000023FB61BB69002B09D14FF0500383F3ED
:102340001188BFF36F8FBFF34F8FFB60FEE7BB6950
:102350009A6BBB69DB6B9A4209D34FF0500383F34E
:102360001188BFF36F8FBFF34F8F3B61FEE7BB69EF
:102370009A6BBB69DB6B9A4225D2BB6993F84530F7
:10238000FB753B1D3A681946B869FFF731FEF861E5
:1023900097F91730B3F1FF3F0ED1BB695B6A002B91
:1023A00011D0BB692433184600F0B6FC0346002B5D
:1023B00009D00123FB6106E0FB7D0133DBB25AB299
:1023C000BB6983F84520FB6918462037BD4680BDB0
:1023D00080B58CB004AFF860B9603B601346FB80F9
:1023E000FB889B001846FEF78BFD78617B69002B0C
:1023F0000ED05020FEF784FDF861FB69002B03D05E
:10240000FB697A691A6305E07869FEF73BFE01E033
:102410000023FB61FB69002B13D0FA880023039390
:10242000FB690293FB6A0193BB6A00933B68B9683E
:10243000F86800F00FF8F86900F092F80123BB612A
:1024400002E04FF0FF33BB61BB6918462037BD4641
:1024500080BD00BF80B588B000AFF860B9607A6019
:102460003B603B6B186B7B689B001A46A52107F00D
:1024700036FA3B6B1A6B7B6803F18043013B9B0090
:102480001344BB61BB6923F00703BB61BB6903F065
:102490000703002B09D04FF0500383F31188BFF3DB
:1024A0006F8FBFF34F8F7B61FEE70023FB6112E06C
:1024B000BA68FB69134419783A6BFB6913443433E7
:1024C0000A461A70BA68FB6913441B78002B06D0C1
:1024D000FB690133FB61FB69092BE9D900E000BF0F
:1024E0003B6B002283F83D20BB6A042B01D90423F7
:1024F000BB623B6BBA6ADA623B6BBA6A1A643B6BCB
:1025000000225A643B6B04331846FEF7F7FE3B6B20
:1025100018331846FEF7F2FE3B6B3A6B1A61BB6A42
:10252000C3F105023B6B9A613B6B3A6B5A623B6BA2
:1025300000229A643B6B002283F84C203A68F968C9
:10254000B869FEF76DFF02463B6B1A60FB6A002B11
:1025500002D0FB6A3A6B1A6000BF2037BD4680BDCF
:1025600080B582B000AF7860FFF72CF82A4B1B686B
:102570000133294A1360294B1B68002B09D1274AD4
:102580007B681360244B1B68012B10D100F0C2FC48
:102590000DE0234B1B68002B09D1204B1B68DA6A26
:1025A0007B68DB6A9A4202D81C4A7B6813601D4B29
:1025B0001B6801331B4A13607B68DB6A01229A4067
:1025C000194B1B681343184A13607B68DA6A134679
:1025D0009B0013449B00154A1A447B680433194638
:1025E0001046FEF797FEFFF71BF80D4B1B68002BFC
:1025F0000ED00A4B1B68DA6A7B68DB6A9A4207D204
:102600000B4B4FF080521A60BFF34F8FBFF36F8FA9
:1026100000BF0837BD4680BD98250020D424002087
:10262000A4250020B4250020A0250020D8240020C7
:1026300004ED00E080B584B000AF7860FEF7C2FF23
:102640007B68002B02D1384B1B6800E07B68FB6085
:10265000FB6804331846FEF7B9FE0346002B15D17C
:10266000FB68DA6A314913469B0013449B000B4414
:102670001B68002B0AD1FB68DB6A012202FA03F314
:10268000DA432B4B1B681340294A1360FB689B6A93
:10269000002B04D0FB6818331846FEF797FE254B35
:1026A0001B680133234A13601F4B1B68FA689A4268
:1026B0000BD1FB68043319461F48FEF72BFE1F4B56
:1026C0001B6801331D4A136009E01D4B1B68013B69
:1026D0001B4A1360F86800F093FC00F0A1FCFEF7C1
:1026E0009FFF184B1B68002B1AD00F4B1B68FA6812
:1026F0009A4215D1144B1B68002B09D04FF05003A0
:1027000083F31188BFF36F8FBFF34F8FBB60FEE77A
:102710000E4B4FF080521A60BFF34F8FBFF36F8F95
:1027200000BF1037BD4680BDD4240020D82400202F
:10273000A0250020B425002080250020942500201D
:1027400098250020A4250020C025002004ED00E0ED
:1027500080B584B000AF78600023FB607B68002BFD
:1027600016D0134B1B68002B09D04FF0500383F396
:102770001188BFF36F8FBFF34F8FBB60FEE700F090
:1027800067F80021786800F09BFD00F06FF8F860B2
:10279000FB68002B07D1074B4FF080521A60BFF344
:1027A0004F8FBFF36F8F00BF1037BD4680BD00BF96
:1027B000C025002004ED00E080B586B002AF1E4BBE
:1027C000019300230093002350221C491C48FFF76B
:1027D000FFFDF860FB68012B02D100F0C5FDF86039
:1027E000FB68012B15D14FF0500383F31188BFF321
:1027F0006F8FBFF34F8F7B60124B4FF0FF321A6029
:10280000114B01221A60114B00221A60FEF77CFE68
:102810000DE0FB68B3F1FF3F09D14FF0500383F3A4
:102820001188BFF36F8FBFF34F8FBB60FEE700BF10
:102830001037BD4680BD00BFBC250020F4A10008B4
:10284000E52E0008B8250020A42500209C250020A6
:1028500080B400AF044B1B680133034A136000BF10
:10286000BD4680BC704700BFC025002080B584B045
:1028700000AF0023FB600023BB60414B1B68002BB3
:1028800009D14FF0500383F31188BFF36F8FBFF36B
:102890004F8F3B60FEE7FEF795FE394B1B68013B0F
:1028A000374A1360364B1B68002B61D1354B1B68D0
:1028B000002B5DD02EE0344BDB68DB68FB60FB68EF
:1028C00018331846FEF782FDFB6804331846FEF7FE
:1028D0007DFDFB68DB6A01229A402C4B1B68134389
:1028E0002A4A1360FB68DA6A13469B0013449B0074
:1028F000274A1A44FB68043319461046FEF70AFDBE
:10290000FB68DA6A234B1B68DB6A9A4202D3224BCC
:1029100001221A601C4B1B68002BCCD1FB68002BDA
:1029200001D000F07DFB1D4B1B687B607B68002B9A
:1029300010D000F067F80346002B02D0164B01229E
:102940001A607B68013B7B607B68002BF1D1134BE5
:1029500000221A60104B1B68002B09D00123BB60BA
:102960000F4B4FF080521A60BFF34F8FBFF36F8F42
:10297000FEF756FEBB6818461037BD4680BD00BF47
:10298000C0250020982500206C250020A0250020CF
:10299000D8240020D4240020AC250020A825002025
:1029A00004ED00E080B483B000AF044B1B687B6093
:1029B0007B6818460C37BD4680BC70479C250020BC
:1029C00080B485B000AF78607B68002B02D10C4BDF
:1029D0001B6800E07B68FB60FB68002B09D14FF0AF
:1029E000500383F31188BFF36F8FBFF34F8FBB602A
:1029F000FEE7FB68343318461437BD4680BC704789
:102A0000D424002080B586B000AF00237B61504BFA
:102A10001B68002B40F08C804E4B1B6801333B61E0
:102A20004C4A3B6913603B69002B1FD14A4B1B6822
:102A30001B68002B09D04FF0500383F31188BFF3BC
:102A40006F8FBFF34F8F3B60FEE7434B1B68FB600C
:102A5000424B1B68404A1360404AFB681360404B7E
:102A60001B6801333E4A136000F0DAFA3D4B1B68E5
:102A70003A699A424DD3384B1B681B68002B01D131
:102A8000012300E00023002B04D0364B4FF0FF322F
:102A90001A603EE0304B1B68DB68DB68BB60BB68DC
:102AA0005B687B603A697B689A4203D22D4A7B68F7
:102AB00013602EE0BB6804331846FEF787FCBB6842
:102AC0009B6A002B04D0BB6818331846FEF77EFCC7
:102AD000BB68DB6A01229A40234B1B681343224ADE
:102AE0001360BB68DA6A13469B0013449B001F4ABD
:102AF0001A44BB68043319461046FEF70BFCBB684A
:102B0000DA6A1B4B1B68DB6A9A42B4D301237B61F0
:102B1000B1E7174B1B68DA6A144913469B0013444C
:102B20009B000B441B68012B07D901237B6104E048
:102B3000104B1B6801330F4A13600F4B1B68002BAF
:102B400001D001237B617B6918461837BD4680BDE3
:102B5000C02500209C250020642500206825002039
:102B6000B0250020B8250020A0250020D824002072
:102B7000D4240020A8250020AC25002080B588B0F2
:102B800000AF394B1B68002B03D0384B01221A6071
:102B900065E0364B00221A60354B1B681B6BFB61EE
:102BA0004FF0A533BB61FB691A68BB699A4211D12A
:102BB000FB6904331A68BB699A420BD1FB6908337D
:102BC0001A68BB699A4205D1FB690C331A68BB6964
:102BD0009A4208D0264B1A68254B1B683433194695
:102BE000104605F03FFE234B1B68BB60BB68B3FA81
:102BF00083F3FB71FB79C3F11F033B611E493A6903
:102C000013469B0013449B000B441B68002B09D107
:102C10004FF0500383F31188BFF36F8FBFF34F8FD3
:102C20007B61FEE73A6913469B0013449B00124AFE
:102C30001344FB60FB685B685A68FB685A60FB687A
:102C40005A68FB6808339A4204D1FB685B685A688B
:102C5000FB685A60FB685B68DB68054A136000BF6D
:102C60002037BD4680BD00BFC0250020AC25002018
:102C7000D4240020A0250020D824002080B584B0D2
:102C800000AF786039607B68002B09D14FF05003AA
:102C900083F31188BFF36F8FBFF34F8FFB60FEE7A5
:102CA000074B1B68183319467868FEF757FB01215C
:102CB000386800F005FB00BF1037BD4680BD00BF7F
:102CC000D424002080B586B000AFF860B9607A6087
:102CD000FB68002B09D14FF0500383F31188BFF339
:102CE0006F8FBFF34F8F7B61FEE70A4B1B68183372
:102CF0001946F868FEF70EFB7B68002B02D04FF0F8
:102D0000FF33BB607968B86800F0DAFA00BF1837A3
:102D1000BD4680BDD424002080B586B000AF786069
:102D20007B68DB68DB683B613B69002B09D14FF0B6
:102D3000500383F31188BFF36F8FBFF34F8FFB6096
:102D4000FEE73B6918331846FEF740FB1D4B1B6836
:102D5000002B1CD13B6904331846FEF737FB3B6957
:102D6000DB6A01229A40184B1B681343164A136012
:102D70003B69DA6A13469B0013449B00134A1A44CA
:102D80003B69043319461046FEF7C4FA05E03B6977
:102D9000183319460E48FEF7BDFA3B69DA6A0D4B47
:102DA0001B68DB6A9A4205D901237B610A4B012229
:102DB0001A6001E000237B617B6918461837BD4625
:102DC00080BD00BFC0250020A0250020D824002001
:102DD0006C250020D4240020AC25002080B485B0D0
:102DE00000AF78607B68002B09D14FF0500383F36C
:102DF0001188BFF36F8FBFF34F8FFB60FEE7064B69
:102E00001A687B681A60054B1A687B685A6000BFB5
:102E10001437BD4680BC7047B02500209C2500209B
:102E200080B586B000AF786039607B68002B09D12F
:102E30004FF0500383F31188BFF36F8FBFF34F8FB1
:102E4000BB60FEE73B68002B09D14FF0500383F3D2
:102E50001188BFF36F8FBFF34F8FFB60FEE7FEF764
:102E6000B1FB184B1B683B617B681A68164B1B68EB
:102E70009A4207D07B685A683B699A4202D801237C
:102E80007B6118E07B685B683A69D21A3B681B6813
:102E90009A420ED23B681A687B6859683B69CB1A24
:102EA0001A443B681A607868FFF798FF00237B613B
:102EB00001E001237B61FEF7B3FB7B6918461837FD
:102EC000BD4680BD9C250020B025002080B400AF09
:102ED000034B01221A6000BFBD4680BC704700BF93
:102EE000AC25002080B582B000AF786000F04CF8CF
:102EF000064B1B68012BF9D9054B4FF080521A6025
:102F0000BFF34F8FBFF36F8FF0E700BFD8240020CF
:102F100004ED00E080B582B000AF00237B600CE0E0
:102F20007A6813469B0013449B00104A13441846CA
:102F3000FEF7C4F97B6801337B607B68042BEFD913
:102F40000B48FEF7BBF90B48FEF7B8F90A48FEF745
:102F5000B5F90A48FEF7B2F9094B054A1A60094B60
:102F6000044A1A6000BF0837BD4680BDD82400203F
:102F70003C250020502500206C25002080250020C5
:102F8000642500206825002080B582B000AF28E0CD
:102F9000FFF75EFC174B1B68002B0CBF01230023BF
:102FA000DBB27B60FFF762FC7B68002B19D1FEF778
:102FB00009FB104BDB68DB683B603B680433184659
:102FC000FEF704FA0C4B1B68013B0B4A13600B4BDA
:102FD0001B68013B094A1360FEF722FB386800F0CA
:102FE0000FF8064B1B68002BD2D100BF0837BD4637
:102FF00080BD00BF8025002098250020942500205A
:1030000080B582B000AF78607B681B6B1846FEF716
:1030100039F87868FEF736F800BF0837BD4680BD3E
:1030200080B483B000AF0E4B1B681B68002B01D12E
:10303000012300E00023002B04D00A4B4FF0FF32A5
:103040001A6008E0064B1B68DB68DB687B607B6806
:103050005B68044A136000BF0C37BD4680BC7047F4
:1030600064250020B825002080B483B000AF0B4B4E
:103070001B68002B02D101237B6008E0084B1B6812
:10308000002B02D102237B6001E000237B607B6880
:1030900018460C37BD4680BC704700BFA4250020F1
:1030A000C025002080B584B000AF78607B68FB60ED
:1030B0007B68002B62D0FB68DA6A324B1B68DB6AE4
:1030C0009A425BD2FB689B69002B06DB2D4B1B6889
:1030D000DB6AC3F10502FB689A61FB685969FB680A
:1030E000DA6A13469B0013449B00274A1344994213
:1030F00001D1012300E00023002B3AD0FB68043308
:103100001846FEF763F90346002B15D1FB68DA6A0F
:103110001D4913469B0013449B000B441B68002B66
:103120000AD1FB68DB6A012202FA03F3DA43174B88
:103130001B681340154A1360124B1B68DA6AFB6860
:10314000DA62FB68DB6A01229A40104B1B6813436A
:103150000E4A1360FB68DA6A13469B0013449B0017
:10316000094A1A44FB68043319461046FEF7D2F8A0
:1031700004E0044B1B68DA6AFB68DA6200BF1037B0
:10318000BD4680BDD4240020D8240020A0250020E6
:1031900080B586B000AF78607B683B6100237B61BF
:1031A0007B68002B6CD0394B1B683A699A4209D076
:1031B0004FF0500383F31188BFF36F8FBFF34F8F2E
:1031C000BB60FEE73B695B6C002B09D14FF05003FD
:1031D00083F31188BFF36F8FBFF34F8FFB60FEE760
:1031E0003B695B6C5A1E3B695A643B69DA6A3B690E
:1031F0001B6C9A4244D03B695B6C002B40D13B690D
:1032000004331846FEF7E2F80346002B15D13B695C
:10321000DA6A1F4913469B0013449B000B441B684A
:10322000002B0AD13B69DB6A012202FA03F3DA437D
:10323000184B1B681340174A13603B691A6C3B69B3
:10324000DA623B69DB6AC3F105023B699A613B695B
:10325000DB6A01229A400F4B1B6813430D4A13602F
:103260003B69DA6A13469B0013449B00084A1A44E0
:103270003B69043319461046FEF74CF801237B6185
:103280007B6918461837BD4680BD00BFD424002096
:10329000D8240020A025002080B400AF074B1B6875
:1032A000002B04D0054B1B685A6C01325A64034B47
:1032B0001B681846BD4680BC704700BFD424002060
:1032C00080B584B000AF78603960214B1B68FB602B
:1032D000204B1B6804331846FEF778F80346002B92
:1032E0000BD11C4B1B68DB6A012202FA03F3DA43A1
:1032F000194B1B681340184A1360FA687B68134423
:10330000BB60144B1B68BA685A60BA68FB689A4283
:1033100009D2124B1A680F4B1B680433194610462A
:10332000FEF71CF810E00E4B1A680A4B1B680433BA
:1033300019461046FEF712F80A4B1B68BA689A4203
:1033400002D2084ABB68136000BF1037BD4680BD7B
:103350009C250020D4240020A025002068250020E2
:1033600064250020B825002080B584B002AF00237A
:103370007B6000F0DDFA104B1B68002B0AD00F4B6E
:103380000193022300930023A0220D490D48FFF76B
:103390001FF878607B68002B09D14FF0500383F34E
:1033A0001188BFF36F8FBFF34F8F3B60FEE77B68E1
:1033B00018460837BD4680BDF4250020F8250020BA
:1033C000FCA100088135000880B588B002AFF86024
:1033D000B9607A603B602820FDF792FD78617B69D7
:1033E000002B09D07B6901933B6A00933B687A68A4
:1033F000B968F86800F006F87B6918461837BD46CA
:1034000080BD00BF80B586B000AFF860B9607A605B
:103410003B60BB68002B09D14FF0500383F3118848
:10342000BFF36F8FBFF34F8F7B61FEE77B6A002B8B
:1034300015D000F07DFA7B6AFA681A607B6ABA6878
:103440009A617B6A7A68DA617B6A3A681A627B6A97
:103450003A6A5A627B6A04331846FDF74FFF00BF91
:103460001837BD4680BD00BF80B58AB000AFF86098
:10347000B9607A603B6000237B62FB68002B09D156
:103480004FF0500383F31188BFF36F8FBFF34F8F5B
:103490003B62FEE7194B1B68002B2AD0BB687B619F
:1034A0007B68BB61FB68FB61BB68052B18DCFFF721
:1034B000DBFD0346022B09D1104B186807F11401FC
:1034C00000233A6BFEF732FA786212E00B4B186871
:1034D00007F1140100230022FEF728FA786208E0C1
:1034E000064B186807F1140100233A68FEF72CFB1D
:1034F00078627B6A18462837BD4680BDF4250020D7
:1035000080B588B002AF786039601C4B1B68DB68FF
:10351000DB687B617B6904331846FDF757FF7B69E5
:10352000DB69012B21D17B699A697B68D1187B68A3
:103530003A68786900F0C8F80346002B15D00023DC
:10354000009300237A6800217869FFF78DFF3861C6
:103550003B69002B09D14FF0500383F31188BFF36F
:103560006F8FBFF34F8FFB60FEE77B695B6A786903
:10357000984700BF1837BD4680BD00BFEC2500202E
:1035800080B584B000AF786007F10803184600F0FA
:1035900057F8F860BB681946F86800F003F800F0C7
:1035A000D5F8F1E780B584B000AF78603960FFF7F7
:1035B0004FF907F10803184600F066F8F860BB6899
:1035C000002B30D13B68002B0AD17A68FB689A4205
:1035D00006D8FFF74BF9F9687868FFF791FF24E008
:1035E0003B68002B08D0134B1B681B68002B0CBFDB
:1035F00001230023DBB23B600F4B18687A68FB683D
:10360000D31A3A681946FEF711FEFFF72FF9034661
:10361000002B0AD1094B4FF080521A60BFF34F8F35
:10362000BFF36F8F01E0FFF721F900BF1037BD46F0
:1036300080BD00BFF0250020F425002004ED00E04F
:1036400080B485B000AF78600E4B1B681B68002B00
:103650000CBF01230023DBB21A467B681A607B682B
:103660001B68002B05D1074B1B68DB681B68FB60E0
:1036700001E00023FB60FB6818461437BD4680BCA0
:10368000704700BFEC25002080B584B000AF7860A3
:10369000FFF788F9F8600B4B1B68FA689A4205D26D
:1036A00000F0E6F87B6801221A6002E07B680022E5
:1036B0001A60044AFB681360FB6818461037BD4661
:1036C00080BD00BFFC25002080B586B000AFF8604B
:1036D000B9607A603B6000237B61FB68BA685A601E
:1036E000FB68FA681A61BA687B689A4212D87A68ED
:1036F0003B68D21AFB689B699A4202D301237B6123
:103700001BE0104B1A68FB68043319461046FDF79E
:1037100025FE12E07A683B689A4206D2BA683B6896
:103720009A4202D301237B6107E0074B1A68FB68CA
:10373000043319461046FDF711FE7B691846183709
:10374000BD4680BDF0250020EC25002080B58CB062
:1037500002AF7AE0BB68002B77DB3B697B627B6A58
:103760005B69002B04D07B6A04331846FDF72EFEFC
:103770003B1D1846FFF788FF3862BB68092B63D8EA
:1037800001A252F823F000BFB1370008B13700089A
:10379000B13700084B3800080B38000841380008E2
:1037A000B1370008B13700084B3800080B38000863
:1037B000FA687B6A9B69D118FB683A6A786AFFF7F6
:1037C00083FF0346002B40D07B6A5B6A786A984788
:1037D0007B6ADB69012B38D1FA687B6A9B691A44E2
:1037E0000023009300230021786AFFF73DFEF86173
:1037F000FB69002B29D14FF0500383F31188BFF3ED
:103800006F8FBFF34F8F7B61FEE7FA687B6A9A6127
:103810007B6A9B69002B09D14FF0500383F3118819
:10382000BFF36F8FBFF34F8FBB61FEE77B6A9A696F
:103830003B6AD1183B6A3A6A786AFFF745FF04E0B1
:10384000786AFDF71FFC00E000BF084B186807F11D
:10385000080100230022FEF7B9FA0346002B7FF48B
:1038600079AF00BF2837BD4680BD00BFF4250020DA
:1038700080B588B002AF44E02B4B1B68DB681B6847
:103880007B61294B1B68DB68DB683B613B69043368
:103890001846FDF79BFD3B695B6A386998473B69B1
:1038A000DB69012B2DD13B699A697B691344FB606D
:1038B000FA687B699A420ED93B69FA685A603B699B
:1038C0003A691A61184B1A683B6904331946104665
:1038D000FDF744FD15E00023009300237A690021E1
:1038E0003869FFF7C1FDB860BB68002B09D14FF004
:1038F000500383F31188BFF36F8FBFF34F8F3B608B
:10390000FEE7094B1B681B68002BB5D1064B1B68F3
:103910007B60064B1B68044A1360044A7B68136093
:1039200000BF1837BD4680BDEC250020F0250020E3
:1039300080B500AFFDF746FE0D4B1B68002B13D181
:103940000C48FDF7BBFC0C48FDF7B8FC0B4B094AD3
:103950001A600B4B084A1A6000220C211420FDF754
:1039600089FF0246024B1A60FDF75AFE00BF80BD78
:10397000F4250020C4250020D8250020EC250020B7
:10398000F025002080B586B000AF78607B687B6151
:103990007B68002B09D14FF0500383F31188BFF3EC
:1039A0006F8FBFF34F8FFB60FEE7FDF70BFE7B6968
:1039B0001B6A3B61FDF734FE3B6918461837BD466C
:1039C00080BD00BF80B582B000AF78607B68B3F582
:1039D000E06F13D07B68B3F5C06F0FD07B68B3F591
:1039E000A06F0BD07B68B3F5806F07D07B68B3F511
:1039F000407F03D06921074804F036FF064A7B6800
:103A000043F0BF6343F40033D36000BF0837BD46C3
:103A100080BD00BF04A2000800ED00E080B586B0C4
:103A200000AF786000237B6100233B610F23FB60C4
:103A30007B68DB78002B07D07B68DB78012B03D019
:103A40007B21334804F010FF7B685B780F2B03D990
:103A50007C212F4804F008FF7B689B780F2B03D94B
:103A60007D212B4804F000FF7B68DB78002B3AD0E7
:103A7000284BDB68DB4303F4E0631B0A7B617B6953
:103A8000C3F104033B61FA687B6922FA03F3FB602C
:103A90007B685B781A463B6902FA03F37B617B68BB
:103AA0009B781A46FB6813407A6913437B617B69F4
:103AB0001B017B61184A7B681B787969C9B2134482
:103AC0000A4683F80023144A7B681B785B09DBB243
:103AD00018467B681B7803F01F03012101FA03F3EA
:103AE00042F820300FE00C497B681B785B09DBB2A1
:103AF00018467B681B7803F01F0301229A4000F1EF
:103B0000200341F8232000BF1837BD4680BD00BF09
:103B100004A2000800ED00E000E100E080B584B000
:103B200000AF03460A46FB801346BB800023FB60C0
:103B3000FB88042B7ED0FB88082B7BD0FB880C2BCA
:103B400078D0FB88102B75D0FB88142B72D0FB88A3
:103B5000182B6FD0FB881C2B6CD0FB88202B69D0D6
:103B6000FB88242B66D0FB88282B63D0FB88402B56
:103B700060D0FB88442B5DD0FB88482B5AD0FB8853
:103B80004C2B57D0FB88502B54D0FB88542B51D052
:103B9000FB88582B4ED0FB885C2B4BD0FB88602BCE
:103BA00048D0FB88642B45D0FB88682B42D0FB882B
:103BB0006C2B3FD0FB88702B3CD0FB88742B39D00A
:103BC000FB88782B36D0FB887C2B33D0FB88802B6E
:103BD00030D0FB88842B2DD0FB88882B2AD0FB8803
:103BE0008C2B27D0FB88902B24D0FB88942B21D0C2
:103BF000FB88982B1ED0FB889C2B1BD0FB88A02B0E
:103C000018D0FB88A42B15D0FB88A82B12D0FB88DA
:103C1000AC2B0FD0FB88B02B0CD0FB88B42B09D079
:103C2000FB88B82B06D0FB88BC2B03D0E9210848C1
:103C300004F01AFE074BFB60FA88FB681344FB6034
:103C4000FB681A46BB88136000BF1037BD4680BDB5
:103C500038A20008006C004080B584B000AF034675
:103C6000FB800023FB60FB88042B7ED0FB88082BA5
:103C70007BD0FB880C2B78D0FB88102B75D0FB8871
:103C8000142B72D0FB88182B6FD0FB881C2B6CD0A8
:103C9000FB88202B69D0FB88242B66D0FB88282B3F
:103CA00063D0FB88402B60D0FB88442B5DD0FB8821
:103CB000482B5AD0FB884C2B57D0FB88502B54D024
:103CC000FB88542B51D0FB88582B4ED0FB885C2BA3
:103CD0004BD0FB88602B48D0FB88642B45D0FB88F9
:103CE000682B42D0FB886C2B3FD0FB88702B3CD0DC
:103CF000FB88742B39D0FB88782B36D0FB887C2B43
:103D000033D0FB88802B30D0FB88842B2DD0FB88D0
:103D1000882B2AD0FB888C2B27D0FB88902B24D093
:103D2000FB88942B21D0FB88982B1ED0FB889C2BE2
:103D30001BD0FB88A02B18D0FB88A42B15D0FB88A8
:103D4000A82B12D0FB88AC2B0FD0FB88B02B0CD04B
:103D5000FB88B42B09D0FB88B82B06D0FB88BC2B82
:103D600003D0FC21074804F07FFD074BFB60FA8875
:103D7000FB681344FB60FB681B889BB21846103736
:103D8000BD4680BD38A20008006C004080B584B0FC
:103D900000AF78600023FB607B681B79002B07D0A5
:103DA0007B681B79042B03D070214A4804F05CFD2A
:103DB0007B685B79082B0BD07B685B790C2B07D079
:103DC0007B685B79102B03D07121424804F04CFDD5
:103DD0007B681B681B0D1B05002B03D17B681B68D0
:103DE000002B03D172213B4804F03EFD7B689B7998
:103DF000002B07D07B689B79012B03D073213548BA
:103E000004F032FD344BFB607B689B79002B4FD074
:103E10003149314B1A687B681B68DB4313400B60E8
:103E20002D492D4B5A687B681B68DB4313404B6060
:103E30007B681B791A46FB681344FB60FB68FA68D1
:103E400011687A6812680A431A602349224B9A68FB
:103E50007B681B68DB4313408B601F491E4BDA688D
:103E60007B681B68DB431340CB607B685B79102B5E
:103E70000ED11949184B9A687B681B6813438B60F5
:103E80001549154BDA687B681B681343CB601DE04E
:103E9000114BFB607B685B791A46FB681344FB603F
:103EA000FB68FA6811687A6812680A431A600DE0C4
:103EB0007B681B791A46FB681344FB60FB68FA6851
:103EC00011687A681268D2430A401A6000BF10373E
:103ED000BD4680BD74A200080004014080B584B0D6
:103EE00000AF78600023FB730023BB607B68012B6D
:103EF00048D07B68022B45D07B68042B42D07B687E
:103F0000082B3FD07B68102B3CD07B68202B39D00E
:103F10007B68402B36D07B68802B33D07B68B3F531
:103F2000807F2FD07B68B3F5007F2BD07B68B3F503
:103F3000806F27D07B68B3F5006F23D07B68B3F523
:103F4000805F1FD07B68B3F5005F1BD07B68B3F543
:103F5000804F17D07B68B3F5004F13D07B68B3F563
:103F6000803F0FD07B68B3F5003F0BD07B68B3F583
:103F7000802F07D07B68B3F5002F03D0EB210D48CD
:103F800004F072FC0C4B1A687B681340BB600A4B50
:103F90005A697B681340002B05D0BB68002B02D008
:103FA0000123FB7301E00023FB73FB7B18461037F2
:103FB000BD4680BD74A200080004014080B582B0F7
:103FC00000AF78607B681B0D1B05002B02D17B685E
:103FD000002B04D14FF48171044804F045FC044ADD
:103FE0007B68536100BF0837BD4680BD74A20008DE
:103FF0000004014080B588B000AF786039600023CC
:10400000FB6100233B610023BB610023FB600023B5
:104010007B610023BB607B68824A93421BD07B6834
:10402000814A934217D07B68804A934213D07B68C1
:104030007F4A93420FD07B687E4A93420BD07B68C5
:104040007D4A934207D07B687C4A934203D0B821D3
:104050007B4804F009FC3B68DB78002B1FD03B68F1
:10406000DB78042B1BD03B68DB78282B17D03B6810
:10407000DB78482B13D03B68DB78142B0FD03B68E0
:10408000DB78102B0BD03B68DB781C2B07D03B6810
:10409000DB78182B03D0B921694804F0E5FB3B68B5
:1040A0001B88002B03D1BA21654804F0DDFB3B6877
:1040B000DB7803F00F03FB613B68DB7803F0100350
:1040C000002B15D03B689B78012B0BD03B689B786D
:1040D000022B07D03B689B78032B03D0C1215848A3
:1040E00004F0C2FB3B689B781A46FB691343FB61F3
:1040F0003B681B88DBB2002B44D07B681B687B616C
:104100000023BB6138E00122BB6902FA03F3FB60C4
:104110003B681B881A46FB6813403B613A69FB68A1
:104120009A4226D1BB699B00FB600F22FB6802FA12
:1041300003F3BB60BB68DB437A6913407B61FA69B8
:10414000FB6802FA03F37A6913437B613B68DB780F
:10415000282B05D10122BB699A407B685A6108E08F
:104160003B68DB78482B04D10122BB699A407B680D
:104170001A61BB690133BB61BB69072BC3D97B687B
:104180007A691A603B681B88FF2B46D97B685B689D
:104190007B610023BB613AE0BB690833012202FA6C
:1041A00003F3FB603B681B881A46FB6813403B61C6
:1041B0003A69FB689A4227D1BB699B00FB600F22DA
:1041C000FB6802FA03F3BB60BB68DB437A69134008
:1041D0007B61FA69FB6802FA03F37A6913437B6136
:1041E0003B68DB78282B05D1BB69083301229A4054
:1041F0007B685A613B68DB78482B05D1BB69083383
:1042000001229A407B681A61BB690133BB61BB69BB
:10421000072BC1D97B687A695A6000BF2037BD4639
:1042200080BD00BF00080140000C014000100140AB
:104230000014014000180140001C01400020014012
:10424000B4A2000880B584B000AF78600B467B80D4
:104250000023FB737B68364A93421CD07B68354A47
:10426000934218D07B68344A934214D07B68334A17
:10427000934210D07B68324A93420CD07B68314A1B
:10428000934208D07B68304A934204D04FF4927135
:104290002E4804F0E9FA7B88012B39D07B88022B69
:1042A00036D07B88042B33D07B88082B30D07B889A
:1042B000102B2DD07B88202B2AD07B88402B27D019
:1042C0007B88802B24D07B88B3F5807F20D07B88AF
:1042D000B3F5007F1CD07B88B3F5806F18D07B8846
:1042E000B3F5006F14D07B88B3F5805F10D07B8866
:1042F000B3F5005F0CD07B88B3F5804F08D07B8886
:10430000B3F5004F04D040F22511104804F0ACFA88
:104310007B689A687B881340002B02D00123FB73D3
:1043200001E00023FB73FB7B18461037BD4680BDC0
:1043300000080140000C0140001001400014014041
:1043400000180140001C014000200140B4A20008F8
:1043500080B582B000AF78600B467B8013467B70DF
:104360007B683B4A93421CD07B683A4A934218D000
:104370007B68394A934214D07B68384A934210D004
:104380007B68374A93420CD07B68364A934208D008
:104390007B68354A934204D040F29311334804F0CD
:1043A00063FA7B88012B39D07B88022B36D07B883F
:1043B000042B33D07B88082B30D07B88102B2DD05A
:1043C0007B88202B2AD07B88402B27D07B88802B92
:1043D00024D07B88B3F5807F20D07B88B3F5007F25
:1043E0001CD07B88B3F5806F18D07B88B3F5006F45
:1043F00014D07B88B3F5805F10D07B88B3F5005F65
:104400000CD07B88B3F5804F08D07B88B3F5004F84
:1044100004D04FF4CA71154804F026FA7B78002BBB
:1044200007D07B78012B04D040F295110F4804F09F
:104430001BFA7B78002B03D07A887B681A6102E034
:104440007A887B685A6100BF0837BD4680BD00BFCF
:1044500000080140000C0140001001400014014020
:1044600000180140001C014000200140B4A20008D7
:1044700090B585B000AF03460A46FB711346BB7189
:104480000023FB60FB79002B16D0FB79012B13D0A6
:10449000FB79022B10D0FB79032B0DD0FB79042B79
:1044A0000AD0FB79052B07D0FB79062B04D040F20C
:1044B0006B21364804F0D8F9BB79002B31D0BB7999
:1044C000012B2ED0BB79022B2BD0BB79032B28D00C
:1044D000BB79042B25D0BB79052B22D0BB79062BC9
:1044E0001FD0BB79072B1CD0BB79082B19D0BB7907
:1044F000092B16D0BB790A2B13D0BB790B2B10D00C
:10450000BB790C2B0DD0BB790D2B0AD0BB790E2BB0
:1045100007D0BB790F2B04D04FF41B711B4804F05C
:10452000A3F9BB7903F003039B000F2202FA03F304
:10453000FB601749BB799B08DBB21846144ABB796C
:104540009B08DBB2023352F82320FB68DB431A409E
:10455000831C41F823200E48BB799B08DBB21C4624
:104560000B4ABB799B08DBB2023352F82320F9795E
:10457000BB7903F003039B0001FA03F31A43A31C66
:1045800040F8232000BF1437BD4690BDB4A20008F8
:104590000000014080B582B000AF78607B68144AAB
:1045A000934207D07B68134A934203D0AB21124851
:1045B00004F05AF97B680E4A93420AD101214FF464
:1045C000001000F063FC00214FF4001000F05EFCCE
:1045D00009E001214FF4800000F058FC00214FF465
:1045E000800000F053FC00BF0837BD4680BD00BF0F
:1045F0000054004000580040F4A2000880B58AB082
:1046000000AF786039600023FB8400237B8404239F
:10461000BB84854BFB617B68844A934207D07B68EF
:10462000834A934203D0CC21824804F01DF93B68B1
:104630001B68002B04D03B681B687F4A934203D958
:10464000CD217C4804F010F93B689B88002B0BD0EF
:104650003B689B88022B07D03B689B880A2B03D0C2
:10466000CE21744804F000F93B68DB88B3F5804F35
:1046700009D03B68DB884BF6FF72934203D0CF2111
:104680006C4804F0F1F83B681B89B3F5806F03D3E5
:10469000D021684804F0E8F83B685B89B3F5806F87
:1046A00007D03B685B89002B03D0D121614804F01F
:1046B000DBF83B689B89B3F5804F08D03B689B894A
:1046C000B3F5404F03D0D2215A4804F0CDF87B68AF
:1046D0009B88FB84FB8C23F03F03FB8407F10803DA
:1046E000184600F0AFFA3B69FB61FB69534AA2FB35
:1046F00003239B0C7B84FA8C7B8C1343FB847B68A9
:10470000FA8C9A807B681B889BB223F001039AB2D3
:104710007B681A800023FB843B681B68484A9342ED
:1047200015D83B681B685B00FA69B2FBF3F3BB84E6
:10473000BB8C032B01D80423BB84FA8CBB8C1343A2
:10474000FB847B8C01339AB27B681A8440E03B681F
:10475000DB884BF6FF72934209D13B681A68134617
:104760005B001344FA69B2FBF3F3BB840EE03B68D1
:104770001A6813469B0013449A001344FA69B2FB6B
:10478000F3F3BB84BB8C43F48043BB84BB8CC3F387
:104790000B03002B03D1BB8C43F00103BB84BA8C09
:1047A000FB8C13439BB26FEA43436FEA5343FB8492
:1047B0007B8C4FF4967202FB03F3224A82FB0312B6
:1047C0009211DB17D31A9BB201339AB27B681A8419
:1047D0007B68FA8C9A837B681B889BB243F0010349
:1047E0009AB27B681A807B681B88FB84FB8C23F45D
:1047F000816323F00203FB843B689A883B685B89F2
:1048000013439AB2FB8C1343FB847B68FA8C1A80A7
:104810003B689A893B681B8913439AB27B681A816B
:1048200000BF2837BD4680BD00127A00005400400A
:1048300000580040F4A20008801A060083DE1B43E3
:10484000A0860100D34D621080B582B000AF7860C1
:104850000B46FB707B68174A934208D07B68164A68
:10486000934204D040F29311144803F0FDFFFB780B
:10487000002B07D0FB78012B04D04FF4CA710F48EE
:1048800003F0F2FFFB78002B08D07B681B889BB2FB
:1048900043F480739AB27B681A8007E07B681B88B8
:1048A0009BB223F480739AB27B681A8000BF0837EA
:1048B000BD4680BD0054004000580040F4A20008EE
:1048C00080B582B000AF78600B46FB707B68174AFA
:1048D000934208D07B68164A934204D040F2AB1151
:1048E000144803F0C1FFFB78002B07D0FB78012BA5
:1048F00004D04FF4D6710F4803F0B6FFFB78002BBD
:1049000008D07B681B889BB243F400739AB27B6823
:104910001A8007E07B681B889BB223F400739AB26D
:104920007B681A8000BF0837BD4680BD0054004038
:1049300000580040F4A2000880B582B000AF786053
:104940000B46FB707B68174A934208D07B68164A77
:10495000934204D040F2C311144803F085FFFB7862
:10496000002B07D0FB78012B04D04FF4E2710F48E5
:1049700003F07AFFFB78002B08D07B681B889BB282
:1049800043F480639AB27B681A8007E07B681B88D7
:104990009BB223F480639AB27B681A8000BF083709
:1049A000BD4680BD0054004000580040F4A20008FD
:1049B00080B582B000AF78600B46FB707B680A4A16
:1049C000934208D07B68094A934204D040F24321C5
:1049D000074803F049FFFB789AB27B681A8200BF50
:1049E0000837BD4680BD00BF00540040005800405D
:1049F000F4A2000880B582B000AF78607B680A4AF4
:104A0000934208D07B68094A934204D04FF4147152
:104A1000074803F029FF7B681B8A9BB2DBB218466C
:104A20000837BD4680BD00BF00540040005800401C
:104A3000F4A2000880B582B000AF78600B46FB702E
:104A40001346BB707B68154A934208D07B68144AB2
:104A5000934204D040F26221124803F005FFBB7874
:104A6000002B07D0BB78012B04D040F263210D4806
:104A700003F0FAFEBB78002B04D0FB7843F001036F
:104A8000FB7003E0FB7823F00103FB70FB789AB224
:104A90007B681A8200BF0837BD4680BD00540040C5
:104AA00000580040F4A2000880B586B000AF7860DE
:104AB000396000233B610023FB600023BB600023BF
:104AC000FB757B68404A934208D07B683F4A93421B
:104AD00004D040F213413E4803F0C6FE3B683D4A15
:104AE00093424FD03B68B3F1021F4BD03B683A4A28
:104AF000934247D03B68B3F5020F43D03B68B3F510
:104B0000901F3FD03B68354A93423BD03B68344AC4
:104B1000934237D03B68334A934233D03B68324AA2
:104B200093422FD03B68314A93422BD03B68304AA6
:104B3000934227D03B68102B24D03B682D4A9342E8
:104B400020D03B682C4A93421CD03B682B4A9342AE
:104B500018D03B682A4A934214D03B68294A9342B2
:104B600010D03B68284A93420CD03B68274A9342B6
:104B700008D03B68B3F5806F04D040F2144114486C
:104B800003F072FE7B689B8A9BB2FB607B681B8B89
:104B90009BB2BB60BB681B04BB60FA68BB68134375
:104BA00023F07F433B613A693B681A403B689A4275
:104BB00002D10123FB7501E00023FB75FB7D184644
:104BC0001837BD4680BD00BF00540040005800406B
:104BD000F4A2000882000600800086004000020067
:104BE000400082004000120084000600840086001D
:104BF0008400160001000300820007000200030089
:104C00004000030084000700800007000800030044
:104C100080B582B000AF0346FB71FB79002B06D054
:104C2000FB79012B03D08521044803F01DFE044AC3
:104C3000FB79136000BF0837BD4680BD30A3000874
:104C400020000E4280B487B000AF786000237B6103
:104C500000233B610023FB600023BB604C4B5B687F
:104C600003F00C037B617B69042B07D0082B09D070
:104C7000002B33D17B68474A1A6033E07B68454A92
:104C80001A602FE0424B5B6803F470133B61404BAA
:104C90005B6803F48033FB603B699B0C02333B6130
:104CA000FB68002B06D13B693B4A02FB03F27B68A1
:104CB0001A6017E0364B5B6803F40033002B06D014
:104CC0003B69354A02FB03F27B681A600AE03B69E4
:104CD000304A02FB03F27B681A6003E07B682D4ACE
:104CE0001A6000BF2A4B5B6803F0F0037B617B69AD
:104CF0001B097B61294A7B6913441B78DBB2BB60CB
:104D00007B681A68BB68DA407B685A60204B5B6836
:104D100003F4E0637B617B691B0A7B611F4A7B694B
:104D200013441B78DBB2BB607B685A68BB68DA400F
:104D30007B689A60164B5B6803F460537B617B6908
:104D4000DB0A7B61154A7B6913441B78DBB2BB60CD
:104D50007B685A68BB68DA407B68DA600C4B5B683A
:104D600003F440437B617B699B0B7B610C4A7B694D
:104D700013441B78DBB2BB607B68DA68BB68B2FBAC
:104D8000F3F27B681A6100BF1C37BD4680BC7047D8
:104D90000010024000127A0000093D0008000020C7
:104DA0001800002080B582B000AF78600B46FB7021
:104DB0007A68164B1340002B02D17B68002B04D17C
:104DC0004FF48A61124803F04FFDFB78002B07D0A7
:104DD000FB78012B04D040F251410D4803F044FD13
:104DE000FB78002B06D00B490A4B9A697B6813436A
:104DF0008B6106E00749074B9A697B68DB431340E8
:104E00008B6100BF0837BD4680BD00BF0200C0FFF8
:104E10006CA300080010024080B582B000AF78603B
:104E20000B46FB707A68164B1340002B02D17B684F
:104E3000002B04D140F26F41124803F015FDFB78BE
:104E4000002B07D0FB78012B04D04FF48E610D4866
:104E500003F00AFDFB78002B06D00B490A4BDA69F8
:104E60007B681343CB6106E00749074BDA697B682F
:104E7000DB431340CB6100BF0837BD4680BD00BF98
:104E8000003601816CA300080010024080B582B09A
:104E900000AF78600B46FB707A68164B1340002B0E
:104EA00002D17B68002B04D140F2C941124803F0C3
:104EB000DBFCFB78002B07D0FB78012B04D040F201
:104EC000CA410D4803F0D0FCFB78002B06D00B49FB
:104ED0000A4B1A697B6813430B6106E00749074BCD
:104EE0001A697B68DB4313400B6100BF0837BD467E
:104EF00080BD00BF003601816CA300080010024095
:104F000080B58CB000AF786039600023FB6200236D
:104F1000BB6200237B6200233B620023FB617B6852
:104F20009D4A934213D07B689C4A93420FD07B6882
:104F30009B4A93420BD07B689A4A934207D07B6886
:104F4000994A934203D0BE21984803F08DFC3B68F8
:104F50001B68002B04D03B681B68954A934203D919
:104F6000BF21924803F080FC3B689B88002B08D04F
:104F70003B689B88B3F5805F03D0C0218B4803F06A
:104F800073FC3B68DB88002B12D03B68DB88B3F5F1
:104F9000805F0DD03B68DB88B3F5005F08D03B68CD
:104FA000DB88B3F5405F03D0C121804803F05CFC8F
:104FB0003B681B89002B0DD03B681B89B3F5806FC4
:104FC00008D03B681B89B3F5C06F03D0C221774876
:104FD00003F04AFC3B685B891A464FF6F3731340B3
:104FE000002B03D13B685B89002B03D1C3216F48A1
:104FF00003F03AFC3B689B89002B12D03B689B89ED
:10500000B3F5807F0DD03B689B89B3F5007F08D056
:105010003B689B89B3F5407F03D0C421634803F00C
:1050200023FC3B689B89002B0FD07B685A4A934234
:105030000BD07B68594A934207D07B68584A934209
:1050400003D0C821594803F00FFC7B68FB617B68E3
:105050001B8A9BB2FB62FA6A4CF6FF731340FB6239
:105060003B68DB881A46FB6A1343FB62FB6A9AB211
:105070007B681A827B689B899BB2FB62FA6A4EF658
:10508000F3131340FB623B689A883B681B89134308
:105090009AB23B685B8913439BB21A46FB6A13437F
:1050A000FB62FB6A9AB27B689A817B689B8A9BB29F
:1050B000FB62FA6A4FF6FF431340FB623B689B8931
:1050C0001A46FB6A1343FB62FB6A9AB27B689A82B8
:1050D00007F108031846FFF7B5FDFB692E4A934216
:1050E00002D17B69BB6201E03B69BB627B689B8943
:1050F0009BB21BB2002B0CDABA6A13469B00134416
:105100009A001A443B681B685B00B2FBF3F37B62B6
:105110000BE0BA6A13469B0013449A001A443B689A
:105120001B689B00B2FBF3F37B627B6A214AA2FB04
:1051300003235B091B01FB62FB6A1B09642202FB60
:1051400003F37A6AD31A3B627B689B899BB21BB2DA
:10515000002B0CDA3B6ADB003233164AA2FB032336
:105160005B0903F00703FA6A1343FB620BE03B6A37
:105170001B0132330F4AA2FB03235B0903F00F0329
:10518000FA6A1343FB62FB6A9AB27B681A8100BF1A
:105190003037BD4680BD00BF0038014000440040AC
:1051A00000480040004C004000500040A8A3000808
:1051B00020AA44001F85EB5180B582B000AF786013
:1051C0000B46FB707B681D4A934214D07B681C4AD7
:1051D000934210D07B681B4A93420CD07B681A4ADA
:1051E000934208D07B68194A934204D04FF4B471BB
:1051F000174803F039FBFB78002B07D0FB78012B15
:1052000004D040F26911124803F02EFBFB78002B0A
:1052100008D07B689B899BB243F400539AB27B68A9
:105220009A8107E07B689B899BB223F400539AB272
:105230007B689A8100BF0837BD4680BD00380140B9
:105240000044004000480040004C00400050004036
:10525000A8A3000880B586B000AF78600B467B80BD
:1052600013467B7000233B610023FB600023BB607F
:1052700000237B617B684C4A934214D07B684B4A85
:10528000934210D07B684A4A93420CD07B68494ACB
:10529000934208D07B68484A934204D040F28F1171
:1052A000464803F0E1FA7B88282B25D07B8840F222
:1052B0002772934220D07B8840F2266293421BD013
:1052C0007B8840F22552934216D07B8840F22442DC
:1052D000934211D07B8840F6460293420CD07B88E3
:1052E00040F66A12934207D07B88602B04D04FF4BB
:1052F000C871324803F0B8FA7B78002B07D07B786E
:10530000012B04D040F291112C4803F0ADFA7B88B8
:1053100040F66A12934210D17B68234A93420CD024
:105320007B68224A934208D07B68214A934204D08A
:1053300040F29511214803F097FA7B687B617B88E6
:10534000DBB25B09DBB23B617B8803F01F03FB60D0
:105350000122FB6802FA03F3BB603B69012B03D116
:105360007B690C337B6109E03B69022B03D17B69CC
:1053700010337B6102E07B6914337B617B78002B07
:1053800006D07B697A691168BA680A431A6006E038
:105390007B697A691168BA68D2430A401A6000BF13
:1053A0001837BD4680BD00BF0038014000440040B2
:1053B00000480040004C004000500040A8A30008F6
:1053C00080B584B000AF78600B467B800023FB7310
:1053D0007B68324A934214D07B68314A934210D0A2
:1053E0007B68304A93420CD07B682F4A934208D0A6
:1053F0007B682E4A934204D04FF45D712C4803F031
:1054000033FA7B88012B21D07B88802B1ED07B88B0
:10541000402B1BD07B88202B18D07B88102B15D0DD
:105420007B88B3F5807F11D07B88B3F5007F0DD0EA
:105430007B88082B0AD07B88042B07D07B88022B23
:1054400004D040F275311A4803F00EFA7B88B3F5A8
:10545000007F10D17B68114A93420CD07B68104AC0
:10546000934208D07B680F4A934204D040F27931CE
:105470000F4803F0F9F97B681B889AB27B881340C8
:105480009BB2002B02D00123FB7301E00023FB73CE
:10549000FB7B18461037BD4680BD00BF0038014079
:1054A0000044004000480040004C004000500040D4
:1054B000A8A3000880B586B000AF78600B467B805B
:1054C0000023FB6000237B610023BB600023FB748F
:1054D0007B685A4A934214D07B68594A934210D051
:1054E0007B68584A93420CD07B68574A934208D055
:1054F0007B68564A934204D04FF47271544803F0CB
:10550000B3F97B88282B37D07B8840F227729342EF
:1055100032D07B8840F2266293422DD07B8840F2C5
:105520002552934228D07B8840F22442934223D0D4
:105530007B8840F6460293421ED07B8840F66A1272
:10554000934219D07B88B3F5587F15D07B8840F201
:105550002532934210D07B88B3F5587F0CD07B88DE
:10556000B3F5187F08D07B88B3F5B07F04D040F244
:10557000C931374803F078F97B8840F66A129342C4
:1055800010D17B682D4A93420CD07B682C4A934201
:1055900008D07B682B4A934204D040F2CD312C488E
:1055A00003F062F97B88DBB25B09DBB2BB607B880E
:1055B00003F01F037B6101227B6902FA03F37B6125
:1055C000BB68012B07D17B689B899BB21A467B691C
:1055D00013407B6111E0BB68022B07D17B681B8AFB
:1055E0009BB21A467B6913407B6106E07B689B8A0D
:1055F0009BB21A467B6913407B617B881B0A9BB276
:10560000FB600122FB6802FA03F3FB607B681B88E6
:105610009BB21A46FB681340FB607B69002B05D0E8
:10562000FB68002B02D00123FB7401E00023FB7414
:10563000FB7C18461837BD4680BD00BF00380140CE
:105640000044004000480040004C00400050004032
:10565000A8A3000880B483B000AF204B7B607B68B8
:1056600003221A617B6803225A617B681C4A9A6193
:105670007B681C4ADA617B6840221A627B680022E0
:105680009A627B6800225A627B680022DA627B6839
:10569000134A1A667B68144A5A667B6810229A6617
:1056A0007B6800221A677B680022DA667B6800222A
:1056B0005A677B6807330D4A106818607B680C4A8C
:1056C000106818609188927999809A717B6820227D
:1056D0009A7100BF0C37BD4680BC7047282B002054
:1056E000E8A300080026002040260020F4A30008BC
:1056F000F8A3000880B588B000AFF860B9607A60A0
:105700000023BB61FB68DB687B61FB681B693B6155
:105710003A697B699A4205D93A697B69D31A013B98
:10572000FB6107E0FB689A6839697B69CB1A13440F
:10573000013BFB61FB689A687B69D31AFA69934263
:1057400028BF1346FB61FA697B68934228BF134662
:10575000FB61FB685A687B691344FA69B9681846AB
:1057600004F0B2F8BA69FB691344BB61BA68FB691B
:105770001344BB607A68FB69D31A7B607A69FB6962
:1057800013447B61FB689A687B699A4201D10023CC
:105790007B61FB687A69DA607B68002BB5D1BB69F5
:1057A00018462037BD4680BD80B588B000AFF86090
:1057B000B9607A60FB68DB68FB61FB689A68FB692B
:1057C000D31ABB61BA697B689A420ED9FB685A68E2
:1057D000FB6913447A68B968184604F075F8FA69E9
:1057E0007B681A44FB68DA601AE0BB697B61FB687E
:1057F0005A68FB6913447A69B968184604F064F87A
:105800007A68BB69D31A7B61FB685868BA68BB6960
:1058100013447A69194604F057F8FB687A69DA602C
:1058200000BF2037BD4680BD80B487B000AF786030
:105830007B681B693B617B68DB68FB603A69FB68DE
:105840009A4208D87B689A68FB68D21A3B6913446D
:10585000013B7B6104E03A69FB68D31A013B7B6141
:105860007B6918461C37BD4680BC704780B588B040
:1058700000AFF860B9607A60BB68BB61FB685A1C16
:1058800013465B001344DB001E4A13447B617B69B3
:105890005B69012B17D0012B02D3022B23D029E007
:1058A0007869FFF7C1FF38613A697B689A4202D292
:1058B0000023FB6121E07B68FB617A68B969786944
:1058C000FFF772FF19E07869FFF7AEFF38617A6879
:1058D0003B69934228BF1346FB61FA69B96978694D
:1058E000FFF762FF09E07A68B9697869FFF702FF9C
:1058F000F86102E00023FB6100BFFB691846203716
:10590000BD4680BD282B002080B586B000AFF86072
:10591000B9607A600D4B1B78002B01D1FFF79AFE1E
:10592000EFF311834FF0200181F311887B617A68D6
:10593000B968F868FFF79AFF38617B6983F31188CB
:105940003B6918461837BD4680BD00BF282B002094
:1059500080B586B000AFF860B9607A603B60304BCC
:105960001B78002B01D1FFF775FE2D4B1B691A46E2
:10597000FB689A424CD9EFF311834FF0200181F379
:1059800011883B61FB68002B32D02549FB685A1C0B
:1059900013465B001344DB000B44BA681A602049CD
:1059A000FB685A1C13465B001344DB000B440433B2
:1059B0007A681A601A49FA6813465B001344DB00E0
:1059C0000B4420333A681A601549FA6813465B00A5
:1059D0001344DB000B44283300221A601049FA6894
:1059E00013465B001344DB000B44243300221A608F
:1059F0000B49FA6813465B001344DB000B442C335D
:105A00003A6A1A603B6983F3118800237B6102E0E4
:105A10004FF0FF337B617B6918461837BD4680BD68
:105A2000282B002080B586B000AFF860B9607A609E
:105A30003B60304B1B78002B01D1FFF70BFE2D4B49
:105A40005B691A46FB689A424BD9EFF311834FF01A
:105A5000200181F311883B61FB68002B31D025497F
:105A6000FA6813465B001344DB000B446033BA68EA
:105A70001A602049FA6813465B001344DB000B44AC
:105A800064337A681A601B49FA6813465B00134452
:105A9000DB000B4468333A681A601649FA6813460B
:105AA0005B001344DB000B44703300221A60114981
:105AB000FA6813465B001344DB000B446C3300228E
:105AC0001A600C49FA6813465B001344DB000B4470
:105AD00074333A6A1A603B6983F3118800237B614F
